{
  "_format": "hh-sol-artifact-1",
  "contractName": "CarbonCreditMarketplace",
  "sourceName": "contracts/CarbonCreditMarketplace.sol",
  "abi": [
    {
      "inputs": [
        {
          "internalType": "address",
          "name": "_carbonCreditToken",
          "type": "address"
        }
      ],
      "stateMutability": "nonpayable",
      "type": "constructor"
    },
    {
      "anonymous": false,
      "inputs": [
        {
          "indexed": true,
          "internalType": "uint256",
          "name": "listingId",
          "type": "uint256"
        }
      ],
      "name": "ListingCancelled",
      "type": "event"
    },
    {
      "anonymous": false,
      "inputs": [
        {
          "indexed": true,
          "internalType": "uint256",
          "name": "listingId",
          "type": "uint256"
        },
        {
          "indexed": true,
          "internalType": "uint256",
          "name": "tokenId",
          "type": "uint256"
        },
        {
          "indexed": true,
          "internalType": "address",
          "name": "seller",
          "type": "address"
        },
        {
          "indexed": false,
          "internalType": "uint256",
          "name": "pricePerCredit",
          "type": "uint256"
        },
        {
          "indexed": false,
          "internalType": "uint256",
          "name": "amount",
          "type": "uint256"
        }
      ],
      "name": "ListingCreated",
      "type": "event"
    },
    {
      "anonymous": false,
      "inputs": [
        {
          "indexed": true,
          "internalType": "address",
          "name": "previousOwner",
          "type": "address"
        },
        {
          "indexed": true,
          "internalType": "address",
          "name": "newOwner",
          "type": "address"
        }
      ],
      "name": "OwnershipTransferred",
      "type": "event"
    },
    {
      "inputs": [],
      "name": "FEE_DENOMINATOR",
      "outputs": [
        {
          "internalType": "uint256",
          "name": "",
          "type": "uint256"
        }
      ],
      "stateMutability": "view",
      "type": "function"
    },
    {
      "inputs": [
        {
          "internalType": "uint256",
          "name": "listingId",
          "type": "uint256"
        }
      ],
      "name": "cancelListing",
      "outputs": [],
      "stateMutability": "nonpayable",
      "type": "function"
    },
    {
      "inputs": [],
      "name": "carbonCreditToken",
      "outputs": [
        {
          "internalType": "contract CarbonCreditToken",
          "name": "",
          "type": "address"
        }
      ],
      "stateMutability": "view",
      "type": "function"
    },
    {
      "inputs": [
        {
          "internalType": "uint256",
          "name": "tokenId",
          "type": "uint256"
        },
        {
          "internalType": "uint256",
          "name": "pricePerCredit",
          "type": "uint256"
        },
        {
          "internalType": "uint256",
          "name": "amount",
          "type": "uint256"
        }
      ],
      "name": "createListing",
      "outputs": [],
      "stateMutability": "nonpayable",
      "type": "function"
    },
    {
      "inputs": [],
      "name": "feeRecipient",
      "outputs": [
        {
          "internalType": "address",
          "name": "",
          "type": "address"
        }
      ],
      "stateMutability": "view",
      "type": "function"
    },
    {
      "inputs": [
        {
          "internalType": "uint256",
          "name": "listingId",
          "type": "uint256"
        }
      ],
      "name": "getActiveListing",
      "outputs": [
        {
          "components": [
            {
              "internalType": "uint256",
              "name": "tokenId",
              "type": "uint256"
            },
            {
              "internalType": "address",
              "name": "seller",
              "type": "address"
            },
            {
              "internalType": "uint256",
              "name": "pricePerCredit",
              "type": "uint256"
            },
            {
              "internalType": "uint256",
              "name": "amount",
              "type": "uint256"
            },
            {
              "internalType": "bool",
              "name": "active",
              "type": "bool"
            },
            {
              "internalType": "uint256",
              "name": "createdAt",
              "type": "uint256"
            },
            {
              "internalType": "string",
              "name": "projectType",
              "type": "string"
            },
            {
              "internalType": "uint256",
              "name": "vintage",
              "type": "uint256"
            }
          ],
          "internalType": "struct CarbonCreditMarketplace.Listing",
          "name": "",
          "type": "tuple"
        }
      ],
      "stateMutability": "view",
      "type": "function"
    },
    {
      "inputs": [],
      "name": "getMarketStats",
      "outputs": [
        {
          "internalType": "uint256",
          "name": "totalListings",
          "type": "uint256"
        },
        {
          "internalType": "uint256",
          "name": "activeListings",
          "type": "uint256"
        },
        {
          "internalType": "uint256",
          "name": "totalVolume",
          "type": "uint256"
        },
        {
          "internalType": "uint256",
          "name": "averagePrice",
          "type": "uint256"
        }
      ],
      "stateMutability": "view",
      "type": "function"
    },
    {
      "inputs": [
        {
          "internalType": "address",
          "name": "user",
          "type": "address"
        }
      ],
      "name": "getUserListings",
      "outputs": [
        {
          "internalType": "uint256[]",
          "name": "",
          "type": "uint256[]"
        }
      ],
      "stateMutability": "view",
      "type": "function"
    },
    {
      "inputs": [],
      "name": "listingCounter",
      "outputs": [
        {
          "internalType": "uint256",
          "name": "",
          "type": "uint256"
        }
      ],
      "stateMutability": "view",
      "type": "function"
    },
    {
      "inputs": [
        {
          "internalType": "uint256",
          "name": "",
          "type": "uint256"
        }
      ],
      "name": "listings",
      "outputs": [
        {
          "internalType": "uint256",
          "name": "tokenId",
          "type": "uint256"
        },
        {
          "internalType": "address",
          "name": "seller",
          "type": "address"
        },
        {
          "internalType": "uint256",
          "name": "pricePerCredit",
          "type": "uint256"
        },
        {
          "internalType": "uint256",
          "name": "amount",
          "type": "uint256"
        },
        {
          "internalType": "bool",
          "name": "active",
          "type": "bool"
        },
        {
          "internalType": "uint256",
          "name": "createdAt",
          "type": "uint256"
        },
        {
          "internalType": "string",
          "name": "projectType",
          "type": "string"
        },
        {
          "internalType": "uint256",
          "name": "vintage",
          "type": "uint256"
        }
      ],
      "stateMutability": "view",
      "type": "function"
    },
    {
      "inputs": [],
      "name": "owner",
      "outputs": [
        {
          "internalType": "address",
          "name": "",
          "type": "address"
        }
      ],
      "stateMutability": "view",
      "type": "function"
    },
    {
      "inputs": [],
      "name": "paymentToken",
      "outputs": [
        {
          "internalType": "contract IERC20",
          "name": "",
          "type": "address"
        }
      ],
      "stateMutability": "view",
      "type": "function"
    },
    {
      "inputs": [],
      "name": "platformFeePercent",
      "outputs": [
        {
          "internalType": "uint256",
          "name": "",
          "type": "uint256"
        }
      ],
      "stateMutability": "view",
      "type": "function"
    },
    {
      "inputs": [],
      "name": "renounceOwnership",
      "outputs": [],
      "stateMutability": "nonpayable",
      "type": "function"
    },
    {
      "inputs": [
        {
          "internalType": "address",
          "name": "_feeRecipient",
          "type": "address"
        }
      ],
      "name": "setFeeRecipient",
      "outputs": [],
      "stateMutability": "nonpayable",
      "type": "function"
    },
    {
      "inputs": [
        {
          "internalType": "address",
          "name": "_paymentToken",
          "type": "address"
        }
      ],
      "name": "setPaymentToken",
      "outputs": [],
      "stateMutability": "nonpayable",
      "type": "function"
    },
    {
      "inputs": [
        {
          "internalType": "uint256",
          "name": "_feePercent",
          "type": "uint256"
        }
      ],
      "name": "setPlatformFee",
      "outputs": [],
      "stateMutability": "nonpayable",
      "type": "function"
    },
    {
      "inputs": [
        {
          "internalType": "address",
          "name": "newOwner",
          "type": "address"
        }
      ],
      "name": "transferOwnership",
      "outputs": [],
      "stateMutability": "nonpayable",
      "type": "function"
    },
    {
      "inputs": [
        {
          "internalType": "address",
          "name": "",
          "type": "address"
        },
        {
          "internalType": "uint256",
          "name": "",
          "type": "uint256"
        }
      ],
      "name": "userListings",
      "outputs": [
        {
          "internalType": "uint256",
          "name": "",
          "type": "uint256"
        }
      ],
      "stateMutability": "view",
      "type": "function"
    }
  ],
  "bytecode": "0x60a0346100e357601f61147138819003918201601f19168301916001600160401b038311848410176100e8578084926020946040528339810103126100e357516001600160a01b0390818116908190036100e35760016000556001549060018060a01b0319913383821617600155604051933391167f8be0079c531659141344cd1fd0a4f28419497f9722a3daafe3b4186f6b6457e0600080a360fa6006556080523390600754161760075561137290816100ff82396080518181816104a201528181610518015281816106cc0152818161072f01528181610c660152610d150152f35b600080fd5b634e487b7160e01b600052604160045260246000fdfe608080604052600436101561001357600080fd5b600090813560e01c9081631030f05f14610eb05750806312e8e2c314610e505780633013ce2914610e27578063305a67a814610cbe5780634690484014610c9557806366dea35814610c505780636a326ab114610c105780636c2c9c7d14610bf2578063715018a614610b9457806386cfa7d314610b3e5780638c639a8514610b205780638da5cb5b14610af7578063b03053b61461046b578063d73792a91461044e578063de74e57b146103b2578063e74b981b14610372578063eb18a9d8146102c0578063f2fde38b146101fa5763ff4cd5b9146100f257600080fd5b346101f757806003193601126101f757600554818080805b84811061015b5750821561015157811561013d57508060809404915b604051938452602084015260408301526060820152f35b634e487b7160e01b81526012600452602490fd5b6080945091610126565b808252600360209080825260ff600460408620015416610186575b5050610181906112b4565b61010a565b6101ab6101978294999396976112b4565b96898652828752826040872001549061132f565b948885525260026040842092830154920154918281029281840414901517156101e357610181916101db9161132f565b959038610176565b634e487b7160e01b83526011600452602483fd5b80fd5b50346101f75760203660031901126101f757610214611068565b61021c6111fa565b6001600160a01b0390811690811561026c57600154826001600160601b0360a01b821617600155167f8be0079c531659141344cd1fd0a4f28419497f9722a3daafe3b4186f6b6457e0600080a380f35b60405162461bcd60e51b815260206004820152602660248201527f4f776e61626c653a206e6577206f776e657220697320746865207a65726f206160448201526564647265737360d01b6064820152608490fd5b50346101f75760208060031936011261036e576001600160a01b036102e3611068565b168252600481526040822060405192838383549182815201908193835284832090835b81811061035a575050508461031c910385611132565b60405193838594850191818652518092526040850193925b82811061034357505050500390f35b835185528695509381019392810192600101610334565b825484529286019260019283019201610306565b5080fd5b50346101f75760203660031901126101f75761038c611068565b6103946111fa565b60018060a01b03166001600160601b0360a01b600754161760075580f35b50346101f75760203660031901126101f7576040906004358152600360205220805460018060a01b0360018301541691610444600282015491600381015460ff600483015416600583015491600761040c60068601611154565b9401549560405198899889526020890152604088015260608701521515608086015260a08501526101008060c0860152840190611043565b9060e08301520390f35b50346101f757806003193601126101f75760206040516127108152f35b50346101f75760603660031901126101f7576104856112d9565b6040516331a9108f60e11b815260048035908201526020816024817f00000000000000000000000000000000000000000000000000000000000000006001600160a01b03165afa9081156107b3578291610ab5575b50336001600160a01b0390911603610a7e5760243515610a4057604435156109fb5760405163f85aafbd60e01b8152600480359082015281816024817f00000000000000000000000000000000000000000000000000000000000000006001600160a01b03165afa80156107b3578283849085948694610966575b501561092b576108ed57604435116108a85760055491610574836112b4565b60055560405190610584826110eb565b6004358252336020830152602435604083015260443560608301526001608083015260a082019242845260c0830191825260e083015283855260036020526040852092825184556001840160018060a01b036020850151166001600160601b0360a01b8254161790556040830151600285015560608301516003850155600484016080840151151560ff801983541691161790555160058401555180519067ffffffffffffffff82116108945761063e60068501546110b1565b601f811161084f575b50602090601f83116001146107dd5791806007949260e09489926107d2575b50508160011b916000199060031b1c19161760068501555b0151910155338252600460205260408220805490680100000000000000008210156107be57906106b391600182018155611083565b815460001960039290921b91821b19169083901b1790557f00000000000000000000000000000000000000000000000000000000000000006001600160a01b03163b1561036e576040516323b872dd60e01b81523360048083019190915230602483015235604482015282908181606481836001600160a01b037f0000000000000000000000000000000000000000000000000000000000000000165af180156107b35761079f575b50506040516024358152604435602082015233917f492d2294f1b8a982001da6ecb3de3a374ad9c29c9c8d5ad43da90cc50b585136604060043593a46001815580f35b6107a89061111e565b61036e57813861075c565b6040513d84823e3d90fd5b634e487b7160e01b84526041600452602484fd5b015190503880610666565b906006850187526020872091875b601f19851681106108375750926007949260019260e09583601f1981161061081e575b505050811b01600685015561067e565b015160001960f88460031b161c1916905538808061080e565b919260206001819286850151815501940192016107eb565b60068501875260208720601f840160051c81016020851061088d575b601f830160051c82018110610881575050610647565b6000815560010161086b565b508061086b565b634e487b7160e01b86526041600452602486fd5b60405162461bcd60e51b815260206004820152601d60248201527f416d6f756e742065786365656473206372656469742062616c616e63650000006044820152606490fd5b60405162461bcd60e51b815260206004820152601660248201527510dc99591a5d08185b1c9958591e481c995d1a5c995960521b6044820152606490fd5b60405162461bcd60e51b815260206004820152601360248201527210dc99591a5d081b9bdd081d995c9a599a5959606a1b6044820152606490fd5b9450505050503d8083833e61097b8183611132565b8101610120828203126109f75781519161099760808201611252565b906109a460a08201611252565b9260c08201519167ffffffffffffffff928381116109f357826109c891830161125f565b9260e08201519081116109f357610100926109e491830161125f565b50015193919290939238610555565b8780fd5b8280fd5b60405162461bcd60e51b815260206004820152601760248201527f416d6f756e74206d75737420626520706f7369746976650000000000000000006044820152606490fd5b60405162461bcd60e51b81526020600482015260166024820152755072696365206d75737420626520706f73697469766560501b6044820152606490fd5b60405162461bcd60e51b815260206004820152600f60248201526e2737ba103a37b5b2b71037bbb732b960891b6044820152606490fd5b90506020813d602011610aef575b81610ad060209383611132565b8101031261036e57516001600160a01b038116810361036e57386104da565b3d9150610ac3565b50346101f757806003193601126101f7576001546040516001600160a01b039091168152602090f35b50346101f757806003193601126101f7576020600654604051908152f35b50346101f75760403660031901126101f757610b58611068565b6001600160a01b03168152600460205260408120805460243592908310156101f7576020610b868484611083565b90546040519160031b1c8152f35b50346101f757806003193601126101f757610bad6111fa565b600180546001600160a01b031981169091556000906001600160a01b03167f8be0079c531659141344cd1fd0a4f28419497f9722a3daafe3b4186f6b6457e08280a380f35b50346101f757806003193601126101f7576020600554604051908152f35b50346101f75760203660031901126101f757610c2a611068565b610c326111fa565b60018060a01b03166001600160601b0360a01b600254161760025580f35b50346101f757806003193601126101f7576040517f00000000000000000000000000000000000000000000000000000000000000006001600160a01b03168152602090f35b50346101f757806003193601126101f7576007546040516001600160a01b039091168152602090f35b50346101f75760203660031901126101f75760043590610cdc6112d9565b81815260036020526040812060018101546001600160a01b039081163303610dee5760048201805460ff811615610db45760ff191690557f0000000000000000000000000000000000000000000000000000000000000000169054813b156109f7576040516323b872dd60e01b815230600482015233602482015260448101919091529082908290606490829084905af180156107b357610da5575b50907f411aee90354c51b1b04cd563fcab2617142a9d50da19232d888547c8a1b7fd8a8280a26001815580f35b610dae9061111e565b38610d78565b60405162461bcd60e51b81526020600482015260126024820152714c697374696e67206e6f742061637469766560701b6044820152606490fd5b60405162461bcd60e51b81526020600482015260116024820152702737ba103634b9ba34b7339037bbb732b960791b6044820152606490fd5b50346101f757806003193601126101f7576002546040516001600160a01b039091168152602090f35b50346101f75760203660031901126101f757600435610e6d6111fa565b6103e88111610e7c5760065580f35b60405162461bcd60e51b815260206004820152600c60248201526b08ccaca40e8dede40d0d2ced60a31b6044820152606490fd5b82346101f7576020918260031936011261036e578160e060043592610ed4816110eb565b82815282868201528260408201528260608201528260808201528260a0820152606060c08201520152600554811015610fe657906040918152600383522060405190610f1f826110eb565b8054825260018101546001600160a01b03908116848401908152600283015460408501908152600384015460608601908152600485015460ff16151560808701908152600586015460a088019081529395949092906007610f8260068801611154565b9660c08a0197885201549660e08901978852604051998a99818b5251908a01525116604088015251606087015251608086015251151560a08501525160c084015251610fdc610100918260e0860152610120850190611043565b9151908301520390f35b60405162461bcd60e51b8152600481018490526012602482015271125b9d985b1a59081b1a5cdd1a5b99c8125160721b6044820152606490fd5b60005b8381106110335750506000910152565b8181015183820152602001611023565b9060209161105c81518092818552858086019101611020565b601f01601f1916010190565b600435906001600160a01b038216820361107e57565b600080fd5b805482101561109b5760005260206000200190600090565b634e487b7160e01b600052603260045260246000fd5b90600182811c921680156110e1575b60208310146110cb57565b634e487b7160e01b600052602260045260246000fd5b91607f16916110c0565b610100810190811067ffffffffffffffff82111761110857604052565b634e487b7160e01b600052604160045260246000fd5b67ffffffffffffffff811161110857604052565b90601f8019910116810190811067ffffffffffffffff82111761110857604052565b9060405191826000825492611168846110b1565b9081845260019485811690816000146111d75750600114611194575b505061119292500383611132565b565b9093915060005260209081600020936000915b8183106111bf57505061119293508201013880611184565b855488840185015294850194879450918301916111a7565b91505061119294506020925060ff191682840152151560051b8201013880611184565b6001546001600160a01b0316330361120e57565b606460405162461bcd60e51b815260206004820152602060248201527f4f776e61626c653a2063616c6c6572206973206e6f7420746865206f776e65726044820152fd5b5190811515820361107e57565b81601f8201121561107e57805167ffffffffffffffff81116111085760405192611293601f8301601f191660200185611132565b8184526020828401011161107e576112b19160208085019101611020565b90565b60001981146112c35760010190565b634e487b7160e01b600052601160045260246000fd5b6002600054146112ea576002600055565b60405162461bcd60e51b815260206004820152601f60248201527f5265656e7472616e637947756172643a207265656e7472616e742063616c6c006044820152606490fd5b919082018092116112c35756fea264697066735822122006a7dda762a11adc4a8c138aa6d98480d8435da6c04b5a6424612e98f574b23764736f6c63430008130033",
  "linkReferences": {},
  "deployedLinkReferences": {}
}