{
  "_format": "hh-sol-artifact-1",
  "contractName": "CarbonCreditToken",
  "sourceName": "contracts/CarbonCreditToken.sol",
  "abi": [
    {
      "inputs": [
        {
          "internalType": "address",
          "name": "_carbonCreditVerifier",
          "type": "address"
        },
        {
          "internalType": "address",
          "name": "_transferVerifier",
          "type": "address"
        }
      ],
      "stateMutability": "nonpayable",
      "type": "constructor"
    },
    {
      "anonymous": false,
      "inputs": [
        {
          "indexed": true,
          "internalType": "address",
          "name": "owner",
          "type": "address"
        },
        {
          "indexed": true,
          "internalType": "address",
          "name": "approved",
          "type": "address"
        },
        {
          "indexed": true,
          "internalType": "uint256",
          "name": "tokenId",
          "type": "uint256"
        }
      ],
      "name": "Approval",
      "type": "event"
    },
    {
      "anonymous": false,
      "inputs": [
        {
          "indexed": true,
          "internalType": "address",
          "name": "owner",
          "type": "address"
        },
        {
          "indexed": true,
          "internalType": "address",
          "name": "operator",
          "type": "address"
        },
        {
          "indexed": false,
          "internalType": "bool",
          "name": "approved",
          "type": "bool"
        }
      ],
      "name": "ApprovalForAll",
      "type": "event"
    },
    {
      "anonymous": false,
      "inputs": [
        {
          "indexed": false,
          "internalType": "uint256",
          "name": "_fromTokenId",
          "type": "uint256"
        },
        {
          "indexed": false,
          "internalType": "uint256",
          "name": "_toTokenId",
          "type": "uint256"
        }
      ],
      "name": "BatchMetadataUpdate",
      "type": "event"
    },
    {
      "anonymous": false,
      "inputs": [
        {
          "indexed": true,
          "internalType": "bytes32",
          "name": "commitment",
          "type": "bytes32"
        },
        {
          "indexed": true,
          "internalType": "address",
          "name": "user",
          "type": "address"
        }
      ],
      "name": "CommitmentRegistered",
      "type": "event"
    },
    {
      "anonymous": false,
      "inputs": [
        {
          "indexed": true,
          "internalType": "address",
          "name": "to",
          "type": "address"
        },
        {
          "indexed": true,
          "internalType": "uint256",
          "name": "tokenId",
          "type": "uint256"
        },
        {
          "indexed": false,
          "internalType": "uint256",
          "name": "carbonAmount",
          "type": "uint256"
        },
        {
          "indexed": false,
          "internalType": "uint256",
          "name": "energyAmount",
          "type": "uint256"
        },
        {
          "indexed": false,
          "internalType": "bytes32",
          "name": "projectHash",
          "type": "bytes32"
        }
      ],
      "name": "CreditMinted",
      "type": "event"
    },
    {
      "anonymous": false,
      "inputs": [
        {
          "indexed": true,
          "internalType": "uint256",
          "name": "tokenId",
          "type": "uint256"
        },
        {
          "indexed": true,
          "internalType": "address",
          "name": "by",
          "type": "address"
        }
      ],
      "name": "CreditRetired",
      "type": "event"
    },
    {
      "anonymous": false,
      "inputs": [
        {
          "indexed": true,
          "internalType": "uint256",
          "name": "tokenId",
          "type": "uint256"
        },
        {
          "indexed": false,
          "internalType": "bool",
          "name": "verified",
          "type": "bool"
        }
      ],
      "name": "CreditVerified",
      "type": "event"
    },
    {
      "anonymous": false,
      "inputs": [
        {
          "indexed": false,
          "internalType": "uint256",
          "name": "_tokenId",
          "type": "uint256"
        }
      ],
      "name": "MetadataUpdate",
      "type": "event"
    },
    {
      "anonymous": false,
      "inputs": [
        {
          "indexed": true,
          "internalType": "address",
          "name": "previousOwner",
          "type": "address"
        },
        {
          "indexed": true,
          "internalType": "address",
          "name": "newOwner",
          "type": "address"
        }
      ],
      "name": "OwnershipTransferred",
      "type": "event"
    },
    {
      "anonymous": false,
      "inputs": [
        {
          "indexed": true,
          "internalType": "bytes32",
          "name": "nullifierHash",
          "type": "bytes32"
        },
        {
          "indexed": true,
          "internalType": "bytes32",
          "name": "senderCommitment",
          "type": "bytes32"
        },
        {
          "indexed": true,
          "internalType": "bytes32",
          "name": "receiverCommitment",
          "type": "bytes32"
        }
      ],
      "name": "PrivateTransfer",
      "type": "event"
    },
    {
      "anonymous": false,
      "inputs": [
        {
          "indexed": true,
          "internalType": "address",
          "name": "from",
          "type": "address"
        },
        {
          "indexed": true,
          "internalType": "address",
          "name": "to",
          "type": "address"
        },
        {
          "indexed": true,
          "internalType": "uint256",
          "name": "tokenId",
          "type": "uint256"
        }
      ],
      "name": "Transfer",
      "type": "event"
    },
    {
      "inputs": [
        {
          "internalType": "address",
          "name": "to",
          "type": "address"
        },
        {
          "internalType": "uint256",
          "name": "tokenId",
          "type": "uint256"
        }
      ],
      "name": "approve",
      "outputs": [],
      "stateMutability": "nonpayable",
      "type": "function"
    },
    {
      "inputs": [
        {
          "internalType": "address",
          "name": "",
          "type": "address"
        }
      ],
      "name": "authorizedMinters",
      "outputs": [
        {
          "internalType": "bool",
          "name": "",
          "type": "bool"
        }
      ],
      "stateMutability": "view",
      "type": "function"
    },
    {
      "inputs": [
        {
          "internalType": "address",
          "name": "owner",
          "type": "address"
        }
      ],
      "name": "balanceOf",
      "outputs": [
        {
          "internalType": "uint256",
          "name": "",
          "type": "uint256"
        }
      ],
      "stateMutability": "view",
      "type": "function"
    },
    {
      "inputs": [
        {
          "internalType": "address[]",
          "name": "recipients",
          "type": "address[]"
        },
        {
          "internalType": "uint256[]",
          "name": "carbonAmounts",
          "type": "uint256[]"
        },
        {
          "internalType": "uint256[]",
          "name": "energyAmounts",
          "type": "uint256[]"
        },
        {
          "internalType": "bytes32[]",
          "name": "projectHashes",
          "type": "bytes32[]"
        },
        {
          "internalType": "string[]",
          "name": "projectTypes",
          "type": "string[]"
        },
        {
          "internalType": "string[]",
          "name": "locations",
          "type": "string[]"
        },
        {
          "internalType": "uint256[]",
          "name": "vintages",
          "type": "uint256[]"
        },
        {
          "internalType": "string[]",
          "name": "uris",
          "type": "string[]"
        }
      ],
      "name": "batchMintCarbonCredits",
      "outputs": [],
      "stateMutability": "nonpayable",
      "type": "function"
    },
    {
      "inputs": [
        {
          "internalType": "address",
          "name": "",
          "type": "address"
        }
      ],
      "name": "carbonBalances",
      "outputs": [
        {
          "internalType": "uint256",
          "name": "",
          "type": "uint256"
        }
      ],
      "stateMutability": "view",
      "type": "function"
    },
    {
      "inputs": [],
      "name": "carbonCreditVerifier",
      "outputs": [
        {
          "internalType": "contract IVerifier",
          "name": "",
          "type": "address"
        }
      ],
      "stateMutability": "view",
      "type": "function"
    },
    {
      "inputs": [
        {
          "internalType": "uint256",
          "name": "",
          "type": "uint256"
        }
      ],
      "name": "carbonCredits",
      "outputs": [
        {
          "internalType": "uint256",
          "name": "carbonAmount",
          "type": "uint256"
        },
        {
          "internalType": "uint256",
          "name": "energyAmount",
          "type": "uint256"
        },
        {
          "internalType": "bytes32",
          "name": "projectHash",
          "type": "bytes32"
        },
        {
          "internalType": "uint256",
          "name": "timestamp",
          "type": "uint256"
        },
        {
          "internalType": "bool",
          "name": "verified",
          "type": "bool"
        },
        {
          "internalType": "bool",
          "name": "retired",
          "type": "bool"
        },
        {
          "internalType": "string",
          "name": "projectType",
          "type": "string"
        },
        {
          "internalType": "string",
          "name": "location",
          "type": "string"
        },
        {
          "internalType": "uint256",
          "name": "vintage",
          "type": "uint256"
        }
      ],
      "stateMutability": "view",
      "type": "function"
    },
    {
      "inputs": [
        {
          "internalType": "bytes32",
          "name": "",
          "type": "bytes32"
        }
      ],
      "name": "commitments",
      "outputs": [
        {
          "internalType": "bool",
          "name": "",
          "type": "bool"
        }
      ],
      "stateMutability": "view",
      "type": "function"
    },
    {
      "inputs": [
        {
          "internalType": "uint256",
          "name": "tokenId",
          "type": "uint256"
        }
      ],
      "name": "getApproved",
      "outputs": [
        {
          "internalType": "address",
          "name": "",
          "type": "address"
        }
      ],
      "stateMutability": "view",
      "type": "function"
    },
    {
      "inputs": [
        {
          "internalType": "address",
          "name": "user",
          "type": "address"
        }
      ],
      "name": "getCarbonBalance",
      "outputs": [
        {
          "internalType": "uint256",
          "name": "",
          "type": "uint256"
        }
      ],
      "stateMutability": "view",
      "type": "function"
    },
    {
      "inputs": [
        {
          "internalType": "uint256",
          "name": "tokenId",
          "type": "uint256"
        }
      ],
      "name": "getCreditDetails",
      "outputs": [
        {
          "internalType": "uint256",
          "name": "carbonAmount",
          "type": "uint256"
        },
        {
          "internalType": "uint256",
          "name": "energyAmount",
          "type": "uint256"
        },
        {
          "internalType": "bytes32",
          "name": "projectHash",
          "type": "bytes32"
        },
        {
          "internalType": "uint256",
          "name": "timestamp",
          "type": "uint256"
        },
        {
          "internalType": "bool",
          "name": "verified",
          "type": "bool"
        },
        {
          "internalType": "bool",
          "name": "retired",
          "type": "bool"
        },
        {
          "internalType": "string",
          "name": "projectType",
          "type": "string"
        },
        {
          "internalType": "string",
          "name": "location",
          "type": "string"
        },
        {
          "internalType": "uint256",
          "name": "vintage",
          "type": "uint256"
        }
      ],
      "stateMutability": "view",
      "type": "function"
    },
    {
      "inputs": [
        {
          "internalType": "address",
          "name": "owner",
          "type": "address"
        },
        {
          "internalType": "address",
          "name": "operator",
          "type": "address"
        }
      ],
      "name": "isApprovedForAll",
      "outputs": [
        {
          "internalType": "bool",
          "name": "",
          "type": "bool"
        }
      ],
      "stateMutability": "view",
      "type": "function"
    },
    {
      "inputs": [
        {
          "internalType": "bytes32",
          "name": "commitment",
          "type": "bytes32"
        }
      ],
      "name": "isCommitmentValid",
      "outputs": [
        {
          "internalType": "bool",
          "name": "",
          "type": "bool"
        }
      ],
      "stateMutability": "view",
      "type": "function"
    },
    {
      "inputs": [
        {
          "internalType": "bytes32",
          "name": "nullifier",
          "type": "bytes32"
        }
      ],
      "name": "isNullifierUsed",
      "outputs": [
        {
          "internalType": "bool",
          "name": "",
          "type": "bool"
        }
      ],
      "stateMutability": "view",
      "type": "function"
    },
    {
      "inputs": [
        {
          "components": [
            {
              "internalType": "address",
              "name": "to",
              "type": "address"
            },
            {
              "internalType": "uint256",
              "name": "carbonAmount",
              "type": "uint256"
            },
            {
              "internalType": "uint256",
              "name": "energyAmount",
              "type": "uint256"
            },
            {
              "internalType": "bytes32",
              "name": "projectHash",
              "type": "bytes32"
            },
            {
              "internalType": "string",
              "name": "projectType",
              "type": "string"
            },
            {
              "internalType": "string",
              "name": "location",
              "type": "string"
            },
            {
              "internalType": "uint256",
              "name": "vintage",
              "type": "uint256"
            },
            {
              "internalType": "string",
              "name": "uri",
              "type": "string"
            }
          ],
          "internalType": "struct CarbonCreditToken.MintParams",
          "name": "params",
          "type": "tuple"
        },
        {
          "components": [
            {
              "internalType": "uint256[2]",
              "name": "a",
              "type": "uint256[2]"
            },
            {
              "internalType": "uint256[2][2]",
              "name": "b",
              "type": "uint256[2][2]"
            },
            {
              "internalType": "uint256[2]",
              "name": "c",
              "type": "uint256[2]"
            },
            {
              "internalType": "uint256[]",
              "name": "input",
              "type": "uint256[]"
            }
          ],
          "internalType": "struct CarbonCreditToken.ZKProof",
          "name": "proof",
          "type": "tuple"
        }
      ],
      "name": "mintCarbonCredit",
      "outputs": [],
      "stateMutability": "nonpayable",
      "type": "function"
    },
    {
      "inputs": [
        {
          "internalType": "address",
          "name": "to",
          "type": "address"
        },
        {
          "internalType": "uint256",
          "name": "carbonAmount",
          "type": "uint256"
        },
        {
          "internalType": "uint256",
          "name": "energyAmount",
          "type": "uint256"
        },
        {
          "internalType": "bytes32",
          "name": "projectHash",
          "type": "bytes32"
        },
        {
          "internalType": "string",
          "name": "projectType",
          "type": "string"
        },
        {
          "internalType": "string",
          "name": "location",
          "type": "string"
        },
        {
          "internalType": "uint256",
          "name": "vintage",
          "type": "uint256"
        },
        {
          "internalType": "string",
          "name": "uri",
          "type": "string"
        },
        {
          "internalType": "uint256[2]",
          "name": "a",
          "type": "uint256[2]"
        },
        {
          "internalType": "uint256[2][2]",
          "name": "b",
          "type": "uint256[2][2]"
        },
        {
          "internalType": "uint256[2]",
          "name": "c",
          "type": "uint256[2]"
        },
        {
          "internalType": "uint256[]",
          "name": "input",
          "type": "uint256[]"
        }
      ],
      "name": "mintCarbonCreditSimple",
      "outputs": [],
      "stateMutability": "nonpayable",
      "type": "function"
    },
    {
      "inputs": [],
      "name": "name",
      "outputs": [
        {
          "internalType": "string",
          "name": "",
          "type": "string"
        }
      ],
      "stateMutability": "view",
      "type": "function"
    },
    {
      "inputs": [],
      "name": "owner",
      "outputs": [
        {
          "internalType": "address",
          "name": "",
          "type": "address"
        }
      ],
      "stateMutability": "view",
      "type": "function"
    },
    {
      "inputs": [
        {
          "internalType": "uint256",
          "name": "tokenId",
          "type": "uint256"
        }
      ],
      "name": "ownerOf",
      "outputs": [
        {
          "internalType": "address",
          "name": "",
          "type": "address"
        }
      ],
      "stateMutability": "view",
      "type": "function"
    },
    {
      "inputs": [
        {
          "internalType": "bytes32",
          "name": "nullifierHash",
          "type": "bytes32"
        },
        {
          "internalType": "bytes32",
          "name": "senderCommitment",
          "type": "bytes32"
        },
        {
          "internalType": "bytes32",
          "name": "newSenderCommitment",
          "type": "bytes32"
        },
        {
          "internalType": "bytes32",
          "name": "receiverCommitment",
          "type": "bytes32"
        },
        {
          "internalType": "bytes32",
          "name": "merkleRoot",
          "type": "bytes32"
        },
        {
          "components": [
            {
              "internalType": "uint256[2]",
              "name": "a",
              "type": "uint256[2]"
            },
            {
              "internalType": "uint256[2][2]",
              "name": "b",
              "type": "uint256[2][2]"
            },
            {
              "internalType": "uint256[2]",
              "name": "c",
              "type": "uint256[2]"
            },
            {
              "internalType": "uint256[]",
              "name": "input",
              "type": "uint256[]"
            }
          ],
          "internalType": "struct CarbonCreditToken.ZKProof",
          "name": "proof",
          "type": "tuple"
        }
      ],
      "name": "privateTransfer",
      "outputs": [],
      "stateMutability": "nonpayable",
      "type": "function"
    },
    {
      "inputs": [
        {
          "internalType": "bytes32",
          "name": "nullifierHash",
          "type": "bytes32"
        },
        {
          "internalType": "bytes32",
          "name": "senderCommitment",
          "type": "bytes32"
        },
        {
          "internalType": "bytes32",
          "name": "newSenderCommitment",
          "type": "bytes32"
        },
        {
          "internalType": "bytes32",
          "name": "receiverCommitment",
          "type": "bytes32"
        },
        {
          "internalType": "bytes32",
          "name": "merkleRoot",
          "type": "bytes32"
        },
        {
          "internalType": "uint256[2]",
          "name": "a",
          "type": "uint256[2]"
        },
        {
          "internalType": "uint256[2][2]",
          "name": "b",
          "type": "uint256[2][2]"
        },
        {
          "internalType": "uint256[2]",
          "name": "c",
          "type": "uint256[2]"
        },
        {
          "internalType": "uint256[]",
          "name": "input",
          "type": "uint256[]"
        }
      ],
      "name": "privateTransferSimple",
      "outputs": [],
      "stateMutability": "nonpayable",
      "type": "function"
    },
    {
      "inputs": [
        {
          "internalType": "bytes32",
          "name": "commitment",
          "type": "bytes32"
        }
      ],
      "name": "registerCommitment",
      "outputs": [],
      "stateMutability": "nonpayable",
      "type": "function"
    },
    {
      "inputs": [],
      "name": "renounceOwnership",
      "outputs": [],
      "stateMutability": "nonpayable",
      "type": "function"
    },
    {
      "inputs": [
        {
          "internalType": "uint256",
          "name": "tokenId",
          "type": "uint256"
        },
        {
          "internalType": "string",
          "name": "",
          "type": "string"
        }
      ],
      "name": "retireCredit",
      "outputs": [],
      "stateMutability": "nonpayable",
      "type": "function"
    },
    {
      "inputs": [
        {
          "internalType": "address",
          "name": "from",
          "type": "address"
        },
        {
          "internalType": "address",
          "name": "to",
          "type": "address"
        },
        {
          "internalType": "uint256",
          "name": "tokenId",
          "type": "uint256"
        }
      ],
      "name": "safeTransferFrom",
      "outputs": [],
      "stateMutability": "nonpayable",
      "type": "function"
    },
    {
      "inputs": [
        {
          "internalType": "address",
          "name": "from",
          "type": "address"
        },
        {
          "internalType": "address",
          "name": "to",
          "type": "address"
        },
        {
          "internalType": "uint256",
          "name": "tokenId",
          "type": "uint256"
        },
        {
          "internalType": "bytes",
          "name": "data",
          "type": "bytes"
        }
      ],
      "name": "safeTransferFrom",
      "outputs": [],
      "stateMutability": "nonpayable",
      "type": "function"
    },
    {
      "inputs": [
        {
          "internalType": "address",
          "name": "operator",
          "type": "address"
        },
        {
          "internalType": "bool",
          "name": "approved",
          "type": "bool"
        }
      ],
      "name": "setApprovalForAll",
      "outputs": [],
      "stateMutability": "nonpayable",
      "type": "function"
    },
    {
      "inputs": [
        {
          "internalType": "address",
          "name": "minter",
          "type": "address"
        },
        {
          "internalType": "bool",
          "name": "authorized",
          "type": "bool"
        }
      ],
      "name": "setAuthorizedMinter",
      "outputs": [],
      "stateMutability": "nonpayable",
      "type": "function"
    },
    {
      "inputs": [
        {
          "internalType": "bytes4",
          "name": "interfaceId",
          "type": "bytes4"
        }
      ],
      "name": "supportsInterface",
      "outputs": [
        {
          "internalType": "bool",
          "name": "",
          "type": "bool"
        }
      ],
      "stateMutability": "view",
      "type": "function"
    },
    {
      "inputs": [],
      "name": "symbol",
      "outputs": [
        {
          "internalType": "string",
          "name": "",
          "type": "string"
        }
      ],
      "stateMutability": "view",
      "type": "function"
    },
    {
      "inputs": [
        {
          "internalType": "uint256",
          "name": "tokenId",
          "type": "uint256"
        }
      ],
      "name": "tokenURI",
      "outputs": [
        {
          "internalType": "string",
          "name": "",
          "type": "string"
        }
      ],
      "stateMutability": "view",
      "type": "function"
    },
    {
      "inputs": [],
      "name": "totalSupply",
      "outputs": [
        {
          "internalType": "uint256",
          "name": "",
          "type": "uint256"
        }
      ],
      "stateMutability": "view",
      "type": "function"
    },
    {
      "inputs": [
        {
          "internalType": "address",
          "name": "from",
          "type": "address"
        },
        {
          "internalType": "address",
          "name": "to",
          "type": "address"
        },
        {
          "internalType": "uint256",
          "name": "tokenId",
          "type": "uint256"
        }
      ],
      "name": "transferFrom",
      "outputs": [],
      "stateMutability": "nonpayable",
      "type": "function"
    },
    {
      "inputs": [
        {
          "internalType": "address",
          "name": "newOwner",
          "type": "address"
        }
      ],
      "name": "transferOwnership",
      "outputs": [],
      "stateMutability": "nonpayable",
      "type": "function"
    },
    {
      "inputs": [],
      "name": "transferVerifier",
      "outputs": [
        {
          "internalType": "contract IVerifier",
          "name": "",
          "type": "address"
        }
      ],
      "stateMutability": "view",
      "type": "function"
    },
    {
      "inputs": [
        {
          "internalType": "bytes32",
          "name": "",
          "type": "bytes32"
        }
      ],
      "name": "usedNullifiers",
      "outputs": [
        {
          "internalType": "bool",
          "name": "",
          "type": "bool"
        }
      ],
      "stateMutability": "view",
      "type": "function"
    }
  ],
  "bytecode": "0x60c034620003dd57601f90601f19906001600160401b0362003ccc3881900385810185168401919083831185841017620003c7578085926040948552833981010312620003dd57620000518262000402565b9162000061602080920162000402565b916200006c620003e2565b95600c87526b10d85c989bdb90dc99591a5d60a21b838801526200008f620003e2565b6002815261434360f01b84820152875193838511620003c75760009485549960019a8b81811c91168015620003bc575b84821014620003a85790818684931162000355575b508390868311600114620002eb578892620002df575b5050600019600383901b1c1916908a1b1785555b8151938411620002cb578854978989811c99168015620002c0575b828a1014620002ac5783891162000263575b858596979899505081938511600114620001fe5750508492620001f2575b5050600019600383901b1c191690851b1784555b60078054336001600160a01b031982168117909255604051956001600160a01b03958694909391928516907f8be0079c531659141344cd1fd0a4f28419497f9722a3daafe3b4186f6b6457e09080a3600855166080521660a0526138b49081620004188239608051818181610ee9015281816113a00152611d31015260a0518181816117040152818161186c0152611a150152f35b01519050388062000149565b899593929193168587528387209387905b8282106200024957505084116200022f575b505050811b0184556200015d565b015160001960f88460031b161c1916905538808062000221565b8484015186558b979095019493840193908101906200020f565b89865281862084860160051c810199838710620002a1575b850160051c01988a905b8a8110620002955750506200012b565b878155018a9062000285565b90995089906200027b565b634e487b7160e01b86526022600452602486fd5b98607f169862000119565b634e487b7160e01b85526041600452602485fd5b015190503880620000ea565b908b8d941691898052858a20928a5b878282106200033557505084116200031b575b505050811b018555620000fe565b015160001960f88460031b161c191690553880806200030d565b91929395968291958786015181550195019301908e9594939291620002fa565b9091508780528388208680850160051c8201928686106200039e575b918e91869594930160051c01915b8281106200038f575050620000d4565b8a81558594508e91016200037f565b9250819262000371565b634e487b7160e01b88526022600452602488fd5b90607f1690620000bf565b634e487b7160e01b600052604160045260246000fd5b600080fd5b60408051919082016001600160401b03811183821017620003c757604052565b51906001600160a01b0382168203620003dd5756fe608080604052600436101561001357600080fd5b60003560e01c90816301ffc9a7146124de5750806306fdde031461243b578063081812fc1461241d578063095ea7b3146122a357806318160ddd14612285578063206137aa1461225457806322dc7b4c1461225457806323b872dd1461223057806342842e0e146121fd57806342ffdb99146118c45780635a7dd27c1461218a5780636352211e1461215a57806364bffd7814611bb557806370a0823114611b1e578063715018a614611ac15780637920ccf4146118f5578063839df945146118c45780638da5cb5b1461189b5780638daed5281461185657806395d89b41146117775780639eea21501461165a578063a22cb46514611595578063a2f69b9814611425578063aa2fe91b14611556578063b88d4fde146114d1578063c87b56dd1461145f578063d26d18ef14611425578063d9e314d8146113cf578063e448d3141461138a578063e7652b3014610d78578063e985e9c514610d22578063ed58bad814610ce0578063ef22dcbe14610591578063f2fde38b146104cd578063f85aafbd146103fd5763fd45515e146101ab57600080fd5b346103f85760403660031901126103f8576004356024356001600160401b0381116103f8576101de903690600401612814565b506101e881612b00565b6001600160a01b039033908216036103c357816000526020906009825260ff60046040600020015460081c1661038c57826000526009825260406000206004810161010061ff0019825416179055549033600052600a835260406000209081549283039283116103765784926000925561026183612b00565b5061026b83612b00565b908383526004855260408320916001600160601b0360a01b92838154169055169081835260038552604083208319815401905583835260028552604083209081541690557fddf252ad1be2c89b69c2b068fc378daa952ba7f163c4a11628f55a4df523b3ef8280a4600681526102e5604060002054612618565b610314575b5033907fa0f88bdc93ff6217657196ec633234f6709c7e841f6bfc701d62861f30e40f0c600080a3005b8160005260068152604060002061032b8154612618565b80610338575b50506102ea565b600092601f8211600114610352575050555b388080610331565b828452832091839161036f90601f0160051c8401600185016132bc565b555561034a565b634e487b7160e01b600052601160045260246000fd5b60405162461bcd60e51b815260048101839052600f60248201526e105b1c9958591e481c995d1a5c9959608a1b6044820152606490fd5b60405162461bcd60e51b815260206004820152600d60248201526c2737ba103a34329037bbb732b960991b6044820152606490fd5b600080fd5b346103f85760203660031901126103f8576004356000526009602052604060002060405161042a81612652565b815481526104c960018301549160208101928352600284015493604082019485526003810154606083019081526004820154608084019060ff81161515825260ff60a086019160081c1615158152610484600585016126c5565b9160c08601928352600761049a600687016126c5565b958660e089015201549586610100820152519751985193519051151591511515925193604051998a998a61276b565b0390f35b346103f85760203660031901126103f8576104e66125a3565b6104ee612a5c565b6001600160a01b0390811690811561053d57600754826001600160601b0360a01b821617600755167f8be0079c531659141344cd1fd0a4f28419497f9722a3daafe3b4186f6b6457e0600080a3005b60405162461bcd60e51b815260206004820152602660248201527f4f776e61626c653a206e6577206f776e657220697320746865207a65726f206160448201526564647265737360d01b6064820152608490fd5b346103f8576101003660031901126103f8576004356001600160401b0381116103f857366023820112156103f85780600401356105cd81612877565b916105db60405193846126a4565b818352602083016024809360051b830101913683116103f8578301905b828210610cc85750505080356001600160401b0381116103f85761062090369060040161288e565b916044356001600160401b0381116103f85761064090369060040161288e565b606435906001600160401b0382116103f857366023830112156103f85781600401359161066c83612877565b9261067a60405194856126a4565b80845285602085019160051b830101913683116103f8578601905b828210610cb8575050506084356001600160401b0381116103f8576106be9036906004016129dc565b60a4356001600160401b0381116103f8576106dd9036906004016129dc565b9360c4356001600160401b0381116103f8576106fd90369060040161288e565b9460e4356001600160401b0381116103f85761071d9036906004016129dc565b9233600052600c60205260ff604060002054168015610ca4575b61074090612fbe565b610748613126565b8251895103610c68576032835111610c2d5760005b8351811015610c2657600e54610772816132ad565b600e5588610780838d6131f3565b5161078b848a6131f3565b51610796858c6131f3565b51906107a286886131f3565b51916107b9876107b2818c6131f3565b51966131f3565b5191604051946107c886612652565b8552602085015260408401524260608401526001608084015260a08301936000855260c0840192835260e084015261010083015283600052600960205261086860406000209383518555602084015160018601556040840151600286015560608401516003860155600485019061085160808601511515839060ff801983541691151516179055565b51815461ff00191690151560081b61ff0016179055565b518051906001600160401b038211610b5f5781906108896005860154612618565b601f8111610bf1575b50602090601f8311600114610b7f57600092610b74575b50508160011b916000199060031b1c19161760058301555b60e08101518051906001600160401b038211610b5f57888f948d948d948d946108ed6006850154612618565b601f8111610b1f575b50602090601f8311600114610a46578b6109d78160008051602061385f83398151915299610a369f9e9d9b98828f9e9b8f8f906109c88461097b610a039f6109e59f95839f996109de9f61010086948a6109c39b6109cf9f600795600092610a3b575b50508160011b916000199060031b1c19161760068501555b01519101556131f3565b516001600160a01b0398908961099184896131f3565b5116600052600a6020526109ab60406000209182546132d3565b90556109c3848a6109bc858a6131f3565b51166132e0565b6131f3565b5190613441565b51169a6131f3565b51956131f3565b51946131f3565b51604051938493846040919493926060820195825260208201520152565b0390a37f6e3975d376ac320be480cb0ac59da5b5b06c96e650c58bdb6bdcc578d1b1fefa602060405160018152a26132ad565b61075d565b015190503880610959565b906006859c9b9a99989c0160005260206000209160005b601f1985168110610aeb57506109d78c60008051602061385f83398151915299610a369f98828f9e9d9b8f8f906109c88461097b610a039f6109e59f95839f996109de9f859f869460018b6109cf9f600795610100956109c39f601f19811610610ad2575b505050811b016006850155610971565b015160001960f88460031b161c19169055388080610ac2565b95999a9b9c5093975094506020919550600182918685015181550194019201938f9591938f9a999897938f96958f96610a5d565b610b4f90600686016000526020600020601f850160051c81019160208610610b55575b601f0160051c01906132bc565b386108f6565b9091508190610b42565b8d634e487b7160e01b60005260416004526000fd5b015190508f806108a9565b9250600585016000526020600020906000935b601f1984168510610bd6576001945083601f19811610610bbd575b505050811b0160058301556108c1565b015160001960f88460031b161c191690558f8080610bad565b81810151835560209485019460019093019290910190610b92565b610c2090600587016000526020600020601f850160051c81019160208610610b5557601f0160051c01906132bc565b38610892565b6001600855005b60405162461bcd60e51b8152602060048201526014818a01527342617463682073697a6520746f6f206c6172676560601b6044820152606490fd5b60405162461bcd60e51b8152602060048201526015818a015274082e4e4c2f240d8cadccee8d040dad2e6dac2e8c6d605b1b6044820152606490fd5b506007546001600160a01b03163314610737565b8135815260209182019101610695565b60208091610cd5846125cf565b8152019101906105f8565b346103f857610d20610cf1366129ad565b90610cfa612a5c565b60018060a01b0316600052600c60205260406000209060ff801983541691151516179055565b005b346103f85760403660031901126103f857610d3b6125a3565b610d436125b9565b9060018060a01b03809116600052600560205260406000209116600052602052602060ff604060002054166040519015158152f35b346103f8576102203660031901126103f857610d926125a3565b6084356001600160401b0381116103f857610db1903690600401612814565b9060a4356001600160401b0381116103f857610dd1903690600401612814565b9060e4356001600160401b0381116103f857610df1903690600401612814565b3661012312156103f857604051610e0781612689565b80610144913683116103f857610104905b83821061137a5750503661016312156103f857604051610e3781612689565b806101c4933685116103f857905b848210611360575050366101e312156103f85760405192610e6584612689565b83610204913683116103f857905b82821061135057505035906001600160401b0382116103f857610e9c602092369060040161288e565b9233600052600c835260ff60406000205416801561133c575b610ebe90612fbe565b610ec6613126565b610ee58460405196879485946361971b8760e11b865260048601613043565b03817f00000000000000000000000000000000000000000000000000000000000000006001600160a01b03165afa91821561133057610f6792610f3091600091611301575b506130da565b610f3e60028251101561317c565b610f5d6001610f56610f4f846131c0565b51936131e3565b5114613207565b6024351115613253565b600e5492610f74846132ad565b600e5560405194610f8486612652565b602435865260443560208701526064356040870152611015606087019242845260808801906001825260a08901906000825260c08a0194855260e08a015260c4356101008a01528760005260096020526040600020948951865560208a0151600187015560408a015160028701555160038601556108516004860192511515839060ff801983541691151516179055565b518051906001600160401b0382116112395781906110366005850154612618565b601f81116112cc575b50602090601f831160011461125a5760009261124f575b50508160011b916000199060031b1c19161760058201555b60e08501519485516001600160401b038111611239576110916006840154612618565b601f8111611204575b506020601f82116001146111895761111394939282600793610100938a9b60009261117e575b50508160011b916000199060031b1c19161760068501555b015191015561110d8460018060a01b0385169485600052600a602052604060002061110660243582546132d3565b90556132e0565b83613441565b60008051602061385f83398151915260405180611149606435604435602435846040919493926060820195825260208201520152565b0390a37f6e3975d376ac320be480cb0ac59da5b5b06c96e650c58bdb6bdcc578d1b1fefa602060405160018152a26001600855005b015190508b806110c0565b6006840160005260206000209760005b601f19841681106111ec575092600183899a61010094611113999897600797601f198116106111d3575b505050811b0160068501556110d8565b015160001960f88460031b161c191690558b80806111c3565b828201518a5560019099019860209283019201611199565b61123390600685016000526020600020601f840160051c81019160208510610b5557601f0160051c01906132bc565b8761109a565b634e487b7160e01b600052604160045260246000fd5b015190508780611056565b9250600584016000526020600020906000935b601f19841685106112b1576001945083601f19811610611298575b505050811b01600582015561106e565b015160001960f88460031b161c19169055878080611288565b8181015183556020948501946001909301929091019061126d565b6112fb90600586016000526020600020601f850160051c81019160208610610b5557601f0160051c01906132bc565b8861103f565b611323915060203d602011611329575b61131b81836126a4565b810190613003565b88610f2a565b503d611311565b6040513d6000823e3d90fd5b506007546001600160a01b03163314610eb5565b8135815260209182019101610e73565b602060409161136f3685612832565b815201910190610e45565b8135815260209182019101610e18565b346103f85760003660031901126103f8576040517f00000000000000000000000000000000000000000000000000000000000000006001600160a01b03168152602090f35b346103f85760203660031901126103f85760043580600052600d6020526040600020600160ff1982541617905533907f8496af4ce72085fce17c14581fe3ebbfb041ffd8e26984bb6b5e14667a884826600080a3005b346103f85760203660031901126103f8576001600160a01b036114466125a3565b16600052600a6020526020604060002054604051908152f35b346103f85760203660031901126103f857600435600081815260026020526040902054611496906001600160a01b03161515612ab4565b60005260066020526104c96114ae60406000206126c5565b60006040516114bc8161266e565b52604051918291602083526020830190612563565b346103f85760803660031901126103f8576114ea6125a3565b6114f26125b9565b90606435906044356001600160401b0383116103f857366023840112156103f857610d209361152e6115519436906024816004013591016127dd565b9261154161153c8433612c3a565b612b61565b61154c838383612d02565b612f33565b612c16565b346103f85760203660031901126103f8576001600160a01b036115776125a3565b16600052600c602052602060ff604060002054166040519015158152f35b346103f8576115a3366129ad565b6001600160a01b0390911690338214611615573360005260056020526040600020826000526020526115e58160406000209060ff801983541691151516179055565b60405190151581527f17307eab39ab6107e8899845ad3d59bd9653f200f220920489ca2b5937696c3160203392a3005b60405162461bcd60e51b815260206004820152601960248201527f4552433732313a20617070726f766520746f2063616c6c6572000000000000006044820152606490fd5b346103f85760c03660031901126103f85760243560043560a4356001600160401b0381116103f8576116909036906004016128ec565b91611699613126565b816000526020600b81526116b560ff604060002054161561361a565b81600052600d81526116ce60ff6040600020541661365f565b8351908080860151606060408801519701936117008551604051998a9485946361971b8760e11b865260048601613043565b03817f00000000000000000000000000000000000000000000000000000000000000006001600160a01b03165afa801561133057610c269561174b9260009261175a575b50506136ab565b519160643591604435916136f7565b6117709250803d106113295761131b81836126a4565b8680611744565b346103f85760003660031901126103f8576040516000600180549061179b82612618565b8085529181811690811561182f57506001146117d6575b6104c9846117c2818603826126a4565b604051918291602083526020830190612563565b600081815292507fb10e2d527612073b26eecdfd717e6a320cf44b4afac2b0732d9fcbe2b7fa0cf65b8284106118175750505081016020016117c2826117b2565b805460208587018101919091529093019281016117ff565b60ff191660208087019190915292151560051b850190920192506117c291508390506117b2565b346103f85760003660031901126103f8576040517f00000000000000000000000000000000000000000000000000000000000000006001600160a01b03168152602090f35b346103f85760003660031901126103f8576007546040516001600160a01b039091168152602090f35b346103f85760203660031901126103f857600435600052600d602052602060ff604060002054166040519015158152f35b346103f8576101c03660031901126103f8576004356024353660c312156103f8576040519061192382612689565b60e492823685116103f85760a4905b858210611ab15750503661010312156103f85760405161195181612689565b80610164953687116103f857905b868210611a975750503661018312156103f8576040519461197f86612689565b856101a4913683116103f857905b828210611a8757505035906001600160401b0382116103f8576119b6602092369060040161288e565b946119bf613126565b83600052600b83526119d960ff604060002054161561361a565b84600052600d83526119f260ff6040600020541661365f565b611a118660405198899485946361971b8760e11b865260048601613043565b03817f00000000000000000000000000000000000000000000000000000000000000006001600160a01b03165afa93841561133057610c2694611a5c91600091611a69575b506136ab565b60643591604435916136f7565b611a81915060203d81116113295761131b81836126a4565b86611a56565b813581526020918201910161198d565b6020604091611aa63685612832565b81520191019061195f565b8135815260209182019101611932565b346103f85760003660031901126103f857611ada612a5c565b600780546001600160a01b031981169091556000906001600160a01b03167f8be0079c531659141344cd1fd0a4f28419497f9722a3daafe3b4186f6b6457e08280a3005b346103f85760203660031901126103f8576001600160a01b03611b3f6125a3565b168015611b5e5760005260036020526020604060002054604051908152f35b60405162461bcd60e51b815260206004820152602960248201527f4552433732313a2061646472657373207a65726f206973206e6f7420612076616044820152683634b21037bbb732b960b91b6064820152608490fd5b346103f8576003196040368201126103f857600435906001600160401b0382116103f8576101009082360301126103f8576040519061010082018281106001600160401b0382111761123957604052611c10816004016125cf565b825260248101356020830152604481013560408301526064810135606083015260848101356001600160401b0381116103f857611c539060043691840101612814565b608083015260a48101356001600160401b0381116103f857611c7b9060043691840101612814565b60a083015260c481013560c083015260e4810135906001600160401b0382116103f8576004611cad9236920101612814565b60e08201526024356001600160401b0381116103f857611cd19036906004016128ec565b33600052600c60205260ff604060002054168015612146575b611cf390612fbe565b611cfb613126565b805190602080820151604083015193611d2d606085015160405196879485946361971b8760e11b865260048601613043565b03817f00000000000000000000000000000000000000000000000000000000000000006001600160a01b03165afa90811561133057611d79606092611da69460009161212757506130da565b0151611d8960028251101561317c565b611d9a6001610f56610f4f846131c0565b60208301511115613253565b600e54611db2816132ad565b600e5560208201519160408101516060820151611e6460808401519160a085015160c08601519160405198611de68a612652565b89526020890195865260408901908152606089019042825260808a01936001855260a08b01936000855260c08c0197885260e08c01526101008b01528860005260096020526040600020968a5188555160018801555160028701555160038601556108516004860192511515839060ff801983541691151516179055565b518051906001600160401b038211611239578190611e856005850154612618565b601f81116120f2575b50602090601f831160011461208057600092612075575b50508160011b916000199060031b1c19161760058201555b60e08401518051906001600160401b03821161123957611ee06006840154612618565b601f8111612040575b50602090601f8311600114611fc9579582600793610100938899600092611fbe575b50508160011b916000199060031b1c19161760068501555b0151910155602081015160018060a01b03825116600052600a602052611f4f60406000209182546132d3565b90558051611f679083906001600160a01b03166132e0565b611f7560e082015183613441565b60008051602061385f83398151915260018060a01b0382511691602081015161114960606040840151930151604051938493846040919493926060820195825260208201520152565b015190508980611f0b565b906006840160005260206000209160005b601f198516811061202857508361010093889993600193600797601f1981161061200f575b505050811b016006850155611f23565b015160001960f88460031b161c19169055898080611fff565b91926020600181928685015181550194019201611fda565b61206f90600685016000526020600020601f850160051c81019160208610610b5557601f0160051c01906132bc565b86611ee9565b015190508680611ea5565b9250600584016000526020600020906000935b601f19841685106120d7576001945083601f198116106120be575b505050811b016005820155611ebd565b015160001960f88460031b161c191690558680806120ae565b81810151835560209485019460019093019290910190612093565b61212190600586016000526020600020601f850160051c81019160208610610b5557601f0160051c01906132bc565b87611e8e565b612140915060203d6020116113295761131b81836126a4565b86610f2a565b506007546001600160a01b03163314611cea565b346103f85760203660031901126103f8576020612178600435612b00565b6040516001600160a01b039091168152f35b346103f85760203660031901126103f8576004356000526009602052604060002080546104c960018301549160028401549360038101549160048201546121d3600584016126c5565b9160076121e2600686016126c5565b9401549460405198899860ff808660081c169516938a61276b565b346103f857610d20611551612211366125e3565b906040519261221f8461266e565b6000845261154161153c8433612c3a565b346103f857610d20612241366125e3565b9161224f61153c8433612c3a565b612d02565b346103f85760203660031901126103f857600435600052600b602052602060ff604060002054166040519015158152f35b346103f85760003660031901126103f8576020600e54604051908152f35b346103f85760403660031901126103f8576122bc6125a3565b602435906001600160a01b0380806122d385612b00565b169216918083146123ce578033149081156123a9575b501561233e57600083815260046020526040902080546001600160a01b0319168317905561231683612b00565b167f8c5be1e5ebec7d5bd14f71427d1e84f3dd0314c0f7b2291e5b200ac8c7c3b925600080a4005b60405162461bcd60e51b815260206004820152603d60248201527f4552433732313a20617070726f76652063616c6c6572206973206e6f7420746f60448201527f6b656e206f776e6572206f7220617070726f76656420666f7220616c6c0000006064820152608490fd5b9050600052600560205260406000203360005260205260ff60406000205416846122e9565b60405162461bcd60e51b815260206004820152602160248201527f4552433732313a20617070726f76616c20746f2063757272656e74206f776e656044820152603960f91b6064820152608490fd5b346103f85760203660031901126103f8576020612178600435612b23565b346103f85760003660031901126103f8576040516000805461245c81612618565b8084529060019081811690811561182f5750600114612485576104c9846117c2818603826126a4565b600080805292507f290decd9548b62a8d60345a988386fc84ba6bc95484008f6362f93160ef3e5635b8284106124c65750505081016020016117c2826117b2565b805460208587018101919091529093019281016124ae565b346103f85760203660031901126103f8576004359063ffffffff60e01b82168092036103f857602091632483248360e11b8114908115612520575b5015158152f35b6380ac58cd60e01b811491508115612552575b8115612541575b5083612519565b6301ffc9a760e01b1490508361253a565b635b5e139f60e01b81149150612533565b919082519283825260005b84811061258f575050826000602080949584010152601f8019910116010190565b60208183018101518483018201520161256e565b600435906001600160a01b03821682036103f857565b602435906001600160a01b03821682036103f857565b35906001600160a01b03821682036103f857565b60609060031901126103f8576001600160a01b039060043582811681036103f8579160243590811681036103f8579060443590565b90600182811c92168015612648575b602083101461263257565b634e487b7160e01b600052602260045260246000fd5b91607f1691612627565b61012081019081106001600160401b0382111761123957604052565b602081019081106001600160401b0382111761123957604052565b604081019081106001600160401b0382111761123957604052565b90601f801991011681019081106001600160401b0382111761123957604052565b90604051918260008254926126d984612618565b9081845260019485811690816000146127485750600114612705575b5050612703925003836126a4565b565b9093915060005260209081600020936000915b818310612730575050612703935082010138806126f5565b85548884018501529485019487945091830191612718565b91505061270394506020925060ff191682840152151560051b82010138806126f5565b99989794909361010097936127bd97936127af968d5260208d015260408c015260608b0152151560808a0152151560a08901526101208060c08a0152880190612563565b9086820360e0880152612563565b930152565b6001600160401b03811161123957601f01601f191660200190565b9291926127e9826127c2565b916127f760405193846126a4565b8294818452818301116103f8578281602093846000960137010152565b9080601f830112156103f85781602061282f933591016127dd565b90565b9080601f830112156103f8576040519161284b83612689565b8290604081019283116103f857905b8282106128675750505090565b813581526020918201910161285a565b6001600160401b0381116112395760051b60200190565b81601f820112156103f8578035916128a583612877565b926128b360405194856126a4565b808452602092838086019260051b8201019283116103f8578301905b8282106128dd575050505090565b813581529083019083016128cf565b919091610120818403126103f85760409283519160808301916001600160401b03928481108482111761123957865283956129278284612832565b855281605f840112156103f857805161293f81612689565b8060c08501918483116103f85790849184808801915b85831061299057505050602088015261296d91612832565b908501526101008201359283116103f85760609261298b920161288e565b910152565b61299f83949560209394612832565b815201910184869392612955565b60409060031901126103f8576004356001600160a01b03811681036103f8579060243580151581036103f85790565b9080601f830112156103f8578135906129f482612877565b92612a0260405194856126a4565b828452602092838086019160051b830101928084116103f857848301915b848310612a305750505050505090565b82356001600160401b0381116103f8578691612a5184848094890101612814565b815201920191612a20565b6007546001600160a01b03163303612a7057565b606460405162461bcd60e51b815260206004820152602060248201527f4f776e61626c653a2063616c6c6572206973206e6f7420746865206f776e65726044820152fd5b15612abb57565b60405162461bcd60e51b815260206004820152601860248201527f4552433732313a20696e76616c696420746f6b656e20494400000000000000006044820152606490fd5b6000908152600260205260409020546001600160a01b031661282f811515612ab4565b600081815260026020526040902054612b46906001600160a01b03161515612ab4565b6000908152600460205260409020546001600160a01b031690565b15612b6857565b60405162461bcd60e51b815260206004820152602d60248201527f4552433732313a2063616c6c6572206973206e6f7420746f6b656e206f776e6560448201526c1c881bdc88185c1c1c9bdd9959609a1b6064820152608490fd5b60809060208152603260208201527f4552433732313a207472616e7366657220746f206e6f6e20455243373231526560408201527131b2b4bb32b91034b6b83632b6b2b73a32b960711b60608201520190565b15612c1d57565b60405162461bcd60e51b815280612c3660048201612bc3565b0390fd5b906001600160a01b038080612c4e84612b00565b16931691838314938415612c81575b508315612c6b575b50505090565b612c7791929350612b23565b1614388080612c65565b909350600052600560205260406000208260005260205260ff604060002054169238612c5d565b15612caf57565b60405162461bcd60e51b815260206004820152602560248201527f4552433732313a207472616e736665722066726f6d20696e636f72726563742060448201526437bbb732b960d91b6064820152608490fd5b90612d2a91612d1084612b00565b6001600160a01b0393918416928492909183168414612ca8565b16918215612dc25781612d4791612d4086612b00565b1614612ca8565b7fddf252ad1be2c89b69c2b068fc378daa952ba7f163c4a11628f55a4df523b3ef60008481526004602052604081206001600160601b0360a01b9081815416905583825260036020526040822060001981540190558482526040822060018154019055858252600260205284604083209182541617905580a4565b60405162461bcd60e51b8152602060048201526024808201527f4552433732313a207472616e7366657220746f20746865207a65726f206164646044820152637265737360e01b6064820152608490fd5b9192600092909190803b15612f2957612e61946040518092630a85bd0160e11b9485835233600484015287602484015260448301526080606483015281878160209a8b966084830190612563565b03926001600160a01b03165af1849181612ee5575b50612ed4575050503d600014612ecc573d612e90816127c2565b90612e9e60405192836126a4565b81528091833d92013e5b80519182612ec95760405162461bcd60e51b815280612c3660048201612bc3565b01fd5b506060612ea8565b6001600160e01b0319161492509050565b9091508581813d8311612f22575b612efd81836126a4565b81010312612f1e57516001600160e01b031981168103612f1e579038612e76565b8480fd5b503d612ef3565b5050915050600190565b9293600093909291803b15612fb357948491612f8d9660405180948193630a85bd0160e11b9788845233600485015260018060a01b0380921660248501526044840152608060648401528260209b8c976084830190612563565b0393165af1849181612ee55750612ed4575050503d600014612ecc573d612e90816127c2565b505050915050600190565b15612fc557565b60405162461bcd60e51b8152602060048201526016602482015275139bdd08185d5d1a1bdc9a5e9959081d1bc81b5a5b9d60521b6044820152606490fd5b908160209103126103f8575180151581036103f85790565b6000915b6002831061302c57505050565b60019082518152602080910192019201919061301f565b9190939261012091613058848481019761301b565b600060408581015b600283106130b757505050509061307f839260c061014095019061301b565b6101008201528251809452019160208092019160005b8281106130a3575050505090565b835185529381019392810192600101613095565b602082826130cb600194889d9c9d5161301b565b01940192019192979697613060565b156130e157565b60405162461bcd60e51b815260206004820152601e60248201527f496e76616c696420636172626f6e20637265646974205a4b2070726f6f6600006044820152606490fd5b600260085414613137576002600855565b60405162461bcd60e51b815260206004820152601f60248201527f5265656e7472616e637947756172643a207265656e7472616e742063616c6c006044820152606490fd5b1561318357565b60405162461bcd60e51b8152602060048201526015602482015274496e76616c69642070726f6f66206f75747075747360581b6044820152606490fd5b8051156131cd5760200190565b634e487b7160e01b600052603260045260246000fd5b8051600110156131cd5760400190565b80518210156131cd5760209160051b010190565b1561320e57565b60405162461bcd60e51b815260206004820152601760248201527f50726f6f662076616c69646174696f6e206661696c65640000000000000000006044820152606490fd5b1561325a57565b60405162461bcd60e51b815260206004820152602560248201527f436172626f6e20616d6f756e74206578636565647320766572696669656420616044820152641b5bdd5b9d60da1b6064820152608490fd5b60001981146103765760010190565b8181106132c7575050565b600081556001016132bc565b9190820180921161037657565b6040516132ec8161266e565b6000808252926001600160a01b0383169283156133b15781611551946127039661333461332e84600052600260205260018060a01b0360406000205416151590565b156133f5565b600083815260026020526040902054613357906001600160a01b0316151561332e565b81815260036020526040812060018154019055828152600260205260408120826001600160601b0360a01b8254161790557fddf252ad1be2c89b69c2b068fc378daa952ba7f163c4a11628f55a4df523b3ef8180a4612e13565b606460405162461bcd60e51b815260206004820152602060248201527f4552433732313a206d696e7420746f20746865207a65726f20616464726573736044820152fd5b156133fc57565b60405162461bcd60e51b815260206004820152601c60248201527f4552433732313a20746f6b656e20616c7265616479206d696e746564000000006044820152606490fd5b6000818152600260205260409020549192916001600160a01b0316156135be576000908082526020916006835260408120908551906001600160401b0382116135aa5761348e8354612618565b601f811161357c575b508490601f83116001146134f857907ff8e1a15aba9398e019f0b49df1a4fde98ee17ae345cb5f6b5e2c27f5033e8ce79697836134ed575b50508160011b916000199060031b1c19161790555b604051908152a1565b0151905038806134cf565b9196601f198816848452868420935b81811061356557509160019391897ff8e1a15aba9398e019f0b49df1a4fde98ee17ae345cb5f6b5e2c27f5033e8ce7999a941061354c575b505050811b0190556134e4565b015160001960f88460031b161c1916905538808061353f565b929387600181928786015181550195019301613507565b6135a490848352868320601f850160051c810191888610610b5557601f0160051c01906132bc565b38613497565b634e487b7160e01b81526041600452602490fd5b60405162461bcd60e51b815260206004820152602e60248201527f45524337323155524953746f726167653a2055524920736574206f66206e6f6e60448201526d32bc34b9ba32b73a103a37b5b2b760911b6064820152608490fd5b1561362157565b60405162461bcd60e51b8152602060048201526016602482015275139d5b1b1a599a595c88185b1c9958591e481d5cd95960521b6044820152606490fd5b1561366657565b60405162461bcd60e51b815260206004820152601960248201527f496e76616c69642073656e64657220636f6d6d69746d656e74000000000000006044820152606490fd5b156136b257565b60405162461bcd60e51b815260206004820152601960248201527f496e76616c6964207472616e73666572205a4b2070726f6f66000000000000006044820152606490fd5b919092936002815110613819576001613719613712836131c0565b51926131e3565b5191036137d457820361379a577ffa674bf3c2572294bf3046d941e8c87b0d3cb73eabc8e93ebad1bcf83ac79b3390600090838252600b602052604082209060ff1991600183825416179055858352600d602052604083208281541690558252604082206001828254161790558582526001604083209182541617905580a4565b60405162461bcd60e51b815260206004820152601260248201527109cead8d8d2ccd2cae440dad2e6dac2e8c6d60731b6044820152606490fd5b60405162461bcd60e51b815260206004820152601a60248201527f5472616e736665722076616c69646174696f6e206661696c65640000000000006044820152606490fd5b60405162461bcd60e51b815260206004820152601e60248201527f496e76616c6964207472616e736665722070726f6f66206f75747075747300006044820152606490fdfea5052e631d5c66379a531207054cfab3e88a7311f5529c5b82ae92e866e19c5ea264697066735822122069ef97ebdb8fd36252ef99bce29f7dd4217b3a0f414130385a655f8753fc1d0064736f6c63430008130033",
  "linkReferences": {},
  "deployedLinkReferences": {}
}